:100000000C9434000C9451000C9451000C94510049
:100010000C9455040C9451000C9451000C94510014
:100020000C9451000C9451000C9451000C94CD058B
:100030000C9451000C9451000C9451000C945100FC
:100040000C9451000C9451000C9451000C945100EC
:100050000C9451000C9451000C9451000C945100DC
:100060000C9451000C94510011241FBECFEFD8E026
:10007000DEBFCDBF11E0A0E0B1E0E8E4F5E102C0F1
:1000800005900D92AA3BB107D9F721E0AAEBB1E0A8
:1000900001C01D92AF3DB207E1F70E940C060C941F
:1000A000A20A0C9400008FEF87BD84B5806484BDE4
:1000B00084B5826084BD85B5846085BD0895BC012A
:1000C000892B11F4569806C08AB180648AB99AB116
:1000D000892B8AB98CE799E70E941C0867BD0895AF
:1000E0008F929F92AF92BF92CF92DF92EF92FF9248
:1000F0004B015C0169017A018AE088169104A10430
:10010000B10420F484E891E00E943202C501B401F8
:100110000E944E0286E891E00E9432028AE0C816F0
:10012000D104E104F10420F484E891E00E94320259
:10013000C701B601FF90EF90DF90CF90BF90AF90D6
:100140009F908F900C944E022B9A85E08A95F1F740
:1001500000002B9808952C9884FF02C05A9A01C081
:100160005A9885FF02C05B9A01C05B9886FF02C067
:100170005C9A01C05C9887FF02C05D9A01C05D98DF
:100180000C94A400CF93C82F84FF02C05A9A01C0D8
:100190005A98C5FF02C05B9A01C05B98C6FF02C0B7
:1001A0005C9A01C05C98C7FF02C05D9A01C05D986F
:1001B0000E94A400C0FF02C05A9A01C05A98C1FF11
:1001C00002C05B9A01C05B98C2FF02C05C9A01C08A
:1001D0005C98C3FF02C05D9A01C05D98CF910C94FA
:1001E000A400CF9352985398549855982C982A9AD3
:1001F0002B9A85E08A95F1F700004D9902C0C0E086
:1002000001C0C0E82B980E94A400C7FDF1CF529A0C
:10021000539A549A559A2A98CF910895CF93C82FFC
:100220000E94F1002C988C2FCF910C94C200529A0E
:10023000539A549A559A249A229A239A5A985B98D8
:100240005C985D982C982A982B982FEF89EF90E076
:10025000215080409040E1F700C0000080E30E9400
:10026000AB008FE39CE90197F1F700C0000080E349
:100270000E94AB008FE99FE00197F1F700C00000FA
:1002800080E30E94AB008FE99FE00197F1F700C087
:10029000000080E20E94AB0088E20E940E018CE028
:1002A0000E940E0186E00E940E0181E00C940E0176
:1002B000CF93C82F0E94F1002C9A8C2FCF910C94D1
:1002C000C20081E00C940E01803158F4623048F491
:1002D000613011F490E401C090E08068892B0C94A7
:1002E0000E010895CF93682F80E00E946401C1E160
:1002F00080E20E945801C150D9F7CF9108950E9421
:10030000F10052985398549855982C982A9A2B9A01
:1003100085E08A95F1F700004A9902C020E001C00B
:1003200020E14B9902C040E001C040E24C9902C07C
:1003300030E001C030E42B982B9A85E08A95F1F7E4
:10034000000089B182FB882780F9822B842B832BC4
:100350004B9902C020E001C022E0822B4C9902C0E0
:1003600090E001C094E0892B4D9902C090E001C05B
:1003700098E0892B2B98529A539A549A559A2A9816
:1003800080341CF0805491E0089590E00895EF923D
:10039000FF920F931F93CF93DF93683000F5C62F22
:1003A0008C010E947F01F82EE92E28E0C29FC00137
:1003B000112480640E940E01E801085F1F4F89919B
:1003C0000E945801C017D107D1F76E2D8F2DDF91F4
:1003D000CF911F910F91FF90EF900C946401DF91EA
:1003E000CF911F910F91FF90EF900895EF92FF92A0
:1003F0000F931F93CF93DF93683020F5C62F8C01A6
:100400000E947F01F82EE92E28E0C29FC00111242E
:1004100080640E940E01E801085F1F4FE9910E2ED3
:10042000000CFF0B84910E945801C017D107B1F74F
:100430006E2D8F2DDF91CF911F910F91FF90EF9037
:100440000C946401DF91CF911F910F91FF90EF9079
:1004500008950E947F0108950E947F01892F0895C9
:100460000C945801CF93DF93EC018991882319F004
:100470000E945801FACFDF91CF910895CF93DF9377
:10048000FC018491EF012196882329F00E945801F4
:10049000FE018491F8CFDF91CF910895CF93DF9340
:1004A000CDB7DEB72C970FB6F894DEBF0FBECDBF29
:1004B000611571058105910521F480E30E945801C1
:1004C000D9C061157105810520E8920709F4D2C0F1
:1004D000FE0131962CE0DF011D922A95E9F720E319
:1004E000298397FF09C090958095709561957F4FFE
:1004F0008F4F9F4F31E001C030E020E3422F2F5F4C
:100500006130BAEC7B07BAE98B07BBE39B0724F0A9
:100510007A5C8A499B43F2CF4A8320E3422F2F5FC4
:10052000611551EE750755EF850755E0950724F0E5
:10053000715E854F9540F2CF4B8320E3422F2F5FB2
:100540006038A6E97A07A8E98A0791052CF0605877
:10055000764988499109F2CF4C8320E3422F2F5FDF
:100560006034B2E47B07BFE08B0791052CF0605448
:1005700072448F409109F2CF4D8320E3422F2F5FC9
:10058000603A56E8750751E0850791052CF0605AEE
:10059000764881409109F2CF4E8320E3422F2F5FAE
:1005A0006031A7E27A07810591052CF0605177420E
:1005B00081099109F3CF4F8320E3422F2F5F683EDB
:1005C000B3E07B07810591052CF0685E73408109DB
:1005D0009109F3CF488720E3422F2F5F64367105DE
:1005E000810591052CF06456710981099109F4CFB8
:1005F000498720E3422F2F5F6A30710581059105FD
:100600002CF06A50710981099109F4CF4A87DC0105
:10061000CB01B7FF03C080E090E0DC0160E3680F2E
:100620006B8720E0DF01A20FB11D8C91803311F4A4
:100630002F5FF8CF332331F02150DF01A20FB11D1E
:100640008DE28C939AE0921B80E030E0BF01680F4E
:10065000711DAB01420F531FDA014C91DB014C932A
:100660008F5F981798F7DF01A80FB11D1C92CF017B
:100670000E9432022C960FB6F894DEBF0FBECDBF9B
:10068000DF91CF9108958F929F92AF92BF92CF92B8
:10069000DF92EF92FF926B017C0149015A0120E049
:1006A00030E0A9010E944309811111C080E30E943A
:1006B00058018EE20E94580180E3FF90EF90DF9096
:1006C000CF90BF90AF909F908F900C94580120E0F6
:1006D00030E040E05FECC701B6010E94300A87FDC0
:1006E00047C020E030E040E05FE4C701B6010E946F
:1006F000430987FF3DC020E030E0A901C701B601F2
:100700000E94430987FF07C0F7FAF094F7F8F094C6
:100710008DE20E945801C701B6010E9448090E945B
:100720004E028EE20E945801C701B6010E944F0995
:100730000E947E099B01AC01C701B6010E94D60848
:100740006B017C01C501B4010E947E099B01AC01D3
:10075000C701B6010E94350A0E944809FF90EF9038
:10076000DF90CF90BF90AF909F908F900C944E02EF
:10077000FF90EF90DF90CF90BF90AF909F908F90C1
:1007800008959A015FB7F894E2ECF1E0708F678BFF
:1007900011821082138A148A158A168A138214828F
:1007A0001582168217821086118612861386148689
:1007B000158616861786108A118A128A118EACED5C
:1007C000B1E09C919E7F9D7F9C938283348F238F89
:1007D00047B121E030E0B90102C0660F771F8A956A
:1007E000E2F7CB01962F9095942397B9E8E6F0E0D5
:1007F000908192609083ECE6F0E09081892B808379
:100800005FBF789408952FB7F8948091DC0180FD44
:1008100024C081FF07C08D7F8093DC012FBF81E062
:1008200090E008953091DD014091DE018091D50185
:100830009091D601A091D701B091D8016091D901D2
:100840007091DA016817790789F0592F5095581778
:1008500041F03093DD014093DE012FBF80E090E056
:100860000895E82FF0E06E177F0799F75A2F8B2F26
:100870008095A813EECFE32FF42F8181928100970A
:1008800041F33396DF0113976C915613F6CF109214
:10089000D5011092D6011092D7011092D801309351
:1008A000DD014093DE012FBF08951F920F920FB616
:1008B0000F921124AF92BF92CF92DF92EF92FF92EC
:1008C0000F931F932F933F934F935F936F937F9358
:1008D0008F939F93AF93BF93CF93DF93EF93FF9348
:1008E00026B14091C40181E090E0042E02C0880F3F
:1008F000991F0A94E2F730E08223932302C0959572
:1009000087954A95E2F7811178C02091BA0130911C
:10091000BB014091BC015091BD016091BE0170913D
:10092000BF018091C0019091C101A090CD01B09014
:10093000CE01C090CF01D090D001E090D101F090D5
:10094000D2010091D3011091D4010E94B8082093E4
:10095000C5013093C6014093C7015093C80160930D
:10096000C9017093CA018093CB019093CC012E37BB
:10097000344041055105610571058105910569F016
:1009800060F01092DB018091DC018E7F8D7F80937F
:10099000DC011092C3011092C2018091C2019091BA
:1009A000C301009719F0029739F0DCC081E090E0B4
:1009B0009093C3018093C2017091BA016091BB0111
:1009C0005091BC014091BD013091BE012091BF0109
:1009D0009091C0018091C1017093CD016093CE01CF
:1009E0005093CF014093D0013093D1012093D20195
:1009F0009093D3018093D401B5C08091C2019091AE
:100A0000C3018130910519F0029741F0ABC082E03B
:100A100090E09093C3018093C201A4C0E090C5010F
:100A2000F090C6010091C7011091C801D091C90191
:100A3000C091CA01B091CB01F091CC019701A801FE
:100A40006D2F7C2F8B2F9F2F2238310541055105AB
:100A5000610571058105910541F038F08091DC0157
:100A600081608D7F8093DC016EC09701A8016D2F9E
:100A70007C2F8B2F9F2FAEE60E94CA0861F058F0A2
:100A80008091DC0182608E7F8093DC011092C30133
:100A90001092C20158C09701A8016D2F7C2F8B2F97
:100AA0009F2FA4E1E091DB010E94CA08D1F0C8F0B9
:100AB00081E090E0A0E0B0E00E2E04C0880F991F06
:100AC000AA1FBB1F0A94D2F74091D5015091D601BD
:100AD0006091D7017091D801842B952BA62BB72B51
:100AE00027C09701A8016D2F7C2F8B2F9F2FA9E086
:100AF0000E94CA0841F138F181E090E0A0E0B0E046
:100B00000E2E04C0880F991FAA1FBB1F0A94D2F78C
:100B100080959095A095B0954091D5015091D601C2
:100B20006091D7017091D80184239523A623B72320
:100B30008093D5019093D601A093D701B093D801AB
:100B4000EF5FE093DB018091DB01803258F010927F
:100B5000DB018091DC018E7F8093DC011092C30168
:100B60001092C201FF91EF91DF91CF91BF91AF91B0
:100B70009F918F917F916F915F914F913F912F91B5
:100B80001F910F91FF90EF90DF90CF90BF90AF90AB
:100B90000F900FBE0F901F9018951F920F920FB6D7
:100BA0000F9211242F933F934F935F936F937F93F3
:100BB0008F939F93AF932091BA013091BB014091E5
:100BC000BC015091BD016091BE017091BF01809147
:100BD000C0019091C101A1E00E94AC082093BA012C
:100BE0003093BB014093BC015093BD016093BE01A3
:100BF0007093BF018093C0019093C101AF919F9109
:100C00008F917F916F915F914F913F912F910F90B5
:100C10000FBE0F901F901895CF93DF93CDB7DEB71F
:100C20006F970FB6F894DEBF0FBECDBF0E94530082
:100C30008FB7F89427EC30E0309389002093880038
:100C400092E090936F00109280009AE09093810060
:100C50008FBF40E051E060E07FEF84E00E94C1037D
:100C60000E9417010E94610160E080E00E9464011F
:100C700084E991E00E94320221E030E040E050E05F
:100C800061E070E080E090E00E94700081E090E020
:100C9000A0E0B0E08D879E87AF87B88B89879A8761
:100CA000AB87BC87212C312C91E09C8B1F8E198A3D
:100CB000912C0E9403048A30910589F030F482302F
:100CC000910579F10397E1F045C08B30910569F00A
:100CD0000C9709F03FC0EFEF2E1A3E0A3BC0A1E08F
:100CE000AE8F9A1238C01E8E36C02114310421F402
:100CF00010EA212E15E0312EB1E02B1A31082AC05E
:100D00002F8D211109C0A9898A2F90E0479668E1AB
:100D100070E00E943008898BBF8D8B2F90E0CB96BE
:100D200010C02F8D2B3349F4A9898A2F90E00196AA
:100D300068E170E00E943008898BBF8D8B2F90E0B6
:100D400001966CE370E00E9430088F8F9E8EE1E088
:100D5000EC8B01C09E8E2091BA013091BB01409175
:100D6000BC015091BD016091BE017091BF018091A5
:100D7000C0019091C10110ECA12E07E2B02EE9E074
:100D8000CE2ED12CE12CF12C00E010E00E94460880
:100D90005101C12CD12CE12CF12C8701BA82CB82DC
:100DA000DC82ED82FE820F831887C12CD12CE12CCE
:100DB000F12C00E010E00E94A3082983432E542E5A
:100DC000652E762E872E8A8B9B8BFCE3AF2EB12C63
:100DD0000E944608A8E1AA2E0E9444082D8B3E8B53
:100DE0004F8B588F698F7A8F8B8F9C8FBCE3AB2E84
:100DF0002981342D452D562D672D782D8A899B8983
:100E00000E944408722E832E542E452E662E7A8B15
:100E10008B8B9D8F2E8D223011F52091BA01309150
:100E2000BB014091BC015091BD016091BE01709128
:100E3000BF018091C0019091C101A0E1AA2EB7E24B
:100E4000BB2E0E94440828383341410551056105F5
:100E500071058105910571F168F1B3E02AC0EE8D4D
:100E6000E33041F52091BA013091BB014091BC01C2
:100E70005091BD016091BE017091BF018091C00190
:100E80009091C101E0E1AE2EF7E2BF2EC12CD12C32
:100E9000E12CF12C00E010E00E9444082838334196
:100EA00041055105610571058105910509F010F4B1
:100EB000B2E0BE8F8D859E85AF85B8895C016D01DE
:100EC000E12CF12C8701272D382D452D542D662D31
:100ED0007A898B899D8DA982BA82CB82DC82ED8250
:100EE000FE820F831887E12CF12C00E010E00E94B5
:100EF000C10809F589859A85AB85BC855C016D01C2
:100F0000E12CF12C87012D893E894F89588D698DFF
:100F10007A8D8B8D9C8DA982BA82CB82DC82ED8208
:100F2000FE820F831887E12CF12C00E010E00E9474
:100F3000C10809F443C09E8D913009F5272D382D45
:100F4000452D542D662D7A898B899D8DAF8CB12CC2
:100F5000C12CD12CE12CF12C00E010E00E94C10842
:100F600071F42D893E894F89588D698D7A8D8B8DCD
:100F70009C8DA9880E94C10811F4A2E0AE8FC20125
:100F80007D868E869F87488A3D892E899F89888D98
:100F900039872A879B878C8760E080E00E94640104
:100FA00081EA91E00E9432022D853E854F85588965
:100FB00069857A858B859C850E947000BE8D9B1209
:100FC00006C0EC89E11103C01C8A9E8C72CE61E0E0
:100FD00080E00E9464018DEA91E00E9432022E8D31
:100FE000211103C08EE891E002C088E891E00E94E0
:100FF00032028E8D8330A1F09F8D492F50E060E04A
:1010000070E0E9898E2F90E0A0E0B0E09A01AB019A
:10101000BC01CD010E9470002E8D223029F407C042
:1010200084EB91E00E94320280E090E002C084E014
:1010300091E00E945F00C8CFAA1BBB1B51E107C013
:10104000AA1FBB1FA617B70710F0A61BB70B881F58
:10105000991F5A95A9F780959095BC01CD010895E7
:1010600097FB072E16F4009407D077FD09D00E9455
:101070001C0807FC05D03EF4909581959F4F08957C
:10108000709561957F4F0895689401C0E8948F92A0
:101090009F92CF93DF930E945208DF91CF919F9050
:1010A0008F90089588249924F401E401B0E49F937B
:1010B000AA279A158B049C04ED05FE05CF05D007E1
:1010C000A10798F4AD2FDC2FCF2FFE2FE92D982C00
:1010D000892E982F872F762F652F542F432F322F4D
:1010E0002227B85031F7BF9127C01B2EBF91BB27D5
:1010F000220F331F441F551F661F771F881F991F1C
:10110000881C991CEE1FFF1FCC1FDD1FAA1FBB1FD1
:101110008A149B04EC05FD05CE05DF05A007B10789
:1011200048F08A189B08EC09FD09CE09DF09A00BDD
:10113000B10B21601A94E1F62EF49401AF01BE01C7
:10114000CD01000C08952A0D3B1D4C1D5D1D6E1D2B
:101150007F1D801F911F08950024A7FD00942A0F72
:10116000301D401D501D601D701D801D901D089577
:101170002A193B094C095D096E097F09800B910B07
:1011800008952A153B054C055D056E057F05800712
:10119000910708950024A7FD00942A173005400503
:1011A0005005600570058005900508955058BB27CF
:1011B000AA270E94EE080C94F6090E94E80938F06C
:1011C0000E94EF0920F039F49F3F19F426F40C94A3
:1011D000E5090EF4E095E7FB0C94DF09E92F0E9486
:1011E000070A58F3BA17620773078407950720F0B8
:1011F00079F4A6F50C94290A0EF4E0950B2EBA2F7B
:10120000A02D0B01B90190010C01CA01A00111240C
:10121000FF27591B99F0593F50F4503E68F11A16B8
:10122000F040A22F232F342F4427585FF3CF469549
:1012300037952795A795F0405395C9F77EF41F166B
:10124000BA0B620B730B840BBAF09150A1F0FF0F35
:10125000BB1F661F771F881FC2F70EC0BA0F621F21
:10126000731F841F48F4879577956795B795F79511
:101270009E3F08F0B0CF9395880F08F09927EE0FA6
:101280009795879508950E94BB0908F481E0089519
:101290000E944F096894B1110C942A0A08950E9483
:1012A0000F0A88F09F5798F0B92F9927B751B0F0DF
:1012B000E1F0660F771F881F991F1AF0BA95C9F7DA
:1012C00014C0B13091F00E94290AB1E008950C9445
:1012D000290A672F782F8827B85F39F0B93FCCF3F8
:1012E000869577956795B395D9F73EF49095809557
:1012F000709561957F4F8F4F9F4F0895E89409C077
:1013000097FB3EF490958095709561957F4F8F4F38
:101310009F4F9923A9F0F92F96E9BB279395F6954E
:10132000879577956795B795F111F8CFFAF4BB0FCC
:1013300011F460FF1BC06F5F7F4F8F4F9F4F16C030
:10134000882311F096E911C0772321F09EE8872FBA
:10135000762F05C0662371F096E8862F70E060E076
:101360002AF09A95660F771F881FDAF7880F9695EF
:10137000879597F90895990F0008550FAA0BE0E893
:10138000FEEF16161706E807F907C0F01216130647
:10139000E407F50798F0621B730B840B950B39F487
:1013A0000A2661F0232B242B252B21F408950A26ED
:1013B00009F4A140A6958FEF811D811D089597F92D
:1013C0009F6780E870E060E008959FEF80EC0895EB
:1013D00000240A9416161706180609060895002414
:1013E0000A9412161306140605060895092E03948E
:1013F000000C11F4882352F0BB0F40F4BF2B11F402
:1014000060FF04C06F5F7F4F8F4F9F4F089557FD60
:101410009058440F551F59F05F3F71F04795880F62
:1014200097FB991F61F09F3F79F0879508951216F9
:1014300013061406551FF2CF4695F1DF08C01616A5
:1014400017061806991FF1CF869571056105089456
:101450000895E894BB2766277727CB0197F908956D
:101460000E94BB0908F48FEF08950E94480A0C946B
:10147000F6090E94E80938F00E94EF0920F0952350
:1014800011F00C94DF090C94E50911240C942A0A3C
:101490000E94070A70F3959FC1F3950F50E0551F06
:1014A000629FF001729FBB27F00DB11D639FAA27B9
:1014B000F00DB11DAA1F649F6627B00DA11D661F08
:1014C000829F2227B00DA11D621F739FB00DA11D29
:1014D000621F839FA00D611D221F749F3327A00DE3
:1014E000611D231F849F600D211D822F762F6A2F7F
:1014F00011249F5750409AF0F1F088234AF0EE0FE4
:10150000FF1FBB1F661F771F881F91505040A9F710
:101510009E3F510580F00C94DF090C942A0A5F3F2E
:10152000E4F3983ED4F3869577956795B795F7954C
:10153000E7959F5FC1F7FE2B880F911D96958795C4
:0815400097F90895F894FFCF1C
:10154800450D00460E00470F00440B00400C0043B9
:101558000A00070300150200090400161300190603
:10156800000D07000C14001815005E16000817007F
:101578001C18005A1900421A00521B004A1C00FF8E
:101588000000020200000300010A00041100050B1C
:1015980000061000080D000912000A0F000C1300C5
:1015A8000D0C000E1D001014001115001216001469
:1015B8001700151800161900181A00191B001A1C14
:1015C80000FF000030003A004F6E202020004F66D8
:1015D8006620200042656573656368757267657289
:1015E80000436C6F636B2054696D652000416C612A
:0A15F800726D20002020202020004A
:00000001FF
