:100000000C9434000C9451000C9451000C94510049
:100010000C9418040C9451000C9451000C94510051
:100020000C9451000C9451000C9451000C949005C8
:100030000C9451000C9451000C9451000C945100FC
:100040000C9451000C9451000C9451000C945100EC
:100050000C9451000C9451000C9451000C945100DC
:100060000C9451000C94510011241FBECFEFD8E026
:10007000DEBFCDBF11E0A0E0B1E0E4E2F0E102C0FC
:1000800005900D92A839B107D9F721E0A8E9B1E0B0
:1000900001C01D92AD3BB207E1F70E94CF050C9461
:1000A00010080C9400008FEF87BD84B5806484BD78
:1000B00084B5826084BD85B5846085BD569A0895F7
:1000C000BC018CE799E70E940F0667BD08952B9A43
:1000D00085E08A95F1F700002B9808952C9884FF0D
:1000E00002C05A9A01C05A9885FF02C05B9A01C0AB
:1000F0005B9886FF02C05C9A01C05C9887FF02C0D3
:100100005D9A01C05D980C946700CF93C82F84FF5F
:1001100002C05A9A01C05A98C5FF02C05B9A01C03A
:100120005B98C6FF02C05C9A01C05C98C7FF02C022
:100130005D9A01C05D980E946700C0FF02C05A9A94
:1001400001C05A98C1FF02C05B9A01C05B98C2FF10
:1001500002C05C9A01C05C98C3FF02C05D9A01C0F6
:100160005D98CF910C946700CF9352985398549810
:1001700055982C982A9A2B9A85E08A95F1F70000D9
:100180004D9902C0C0E001C0C0E82B980E946700F2
:10019000C7FDF1CF529A539A549A559A2A98CF9103
:1001A0000895CF93C82F0E94B4002C988C2FCF9124
:1001B0000C948500529A539A549A559A249A229AEA
:1001C000239A5A985B985C985D982C982A982B985B
:1001D0002FEF89EF90E0215080409040E1F700C080
:1001E000000080E30E946E008FE39CE90197F1F725
:1001F00000C0000080E30E946E008FE99FE001973D
:10020000F1F700C0000080E30E946E008FE99FE0DC
:100210000197F1F700C0000080E20E946E0088E2C2
:100220000E94D1008CE00E94D10086E00E94D100A3
:1002300081E00C94D100CF93C82F0E94B4002C9A77
:100240008C2FCF910C94850081E00C94D1008031EB
:1002500058F4623048F4613011F490E401C090E049
:100260008068892B0C94D1000895CF93682F80E08B
:100270000E942701C1E180E20E941B01C150D9F711
:10028000CF9108950E94B40052985398549855986D
:100290002C982A9A2B9A85E08A95F1F700004A99C2
:1002A00002C020E001C020E14B9902C040E001C043
:1002B00040E24C9902C030E001C030E42B982B9A08
:1002C00085E08A95F1F7000089B182FB882780F9E3
:1002D000822B842B832B4B9902C020E001C022E0AB
:1002E000822B4C9902C090E001C094E0892B4D997B
:1002F00002C090E001C098E0892B2B98529A539A43
:10030000549A559A2A9880341CF0805491E00895AC
:1003100090E00895EF92FF920F931F93CF93DF9396
:10032000683000F5C62F8C010E944201F82EE92E9C
:1003300028E0C29FC001112480640E94D100E8011E
:10034000085F1F4F89910E941B01C017D107D1F789
:100350006E2D8F2DDF91CF911F910F91FF90EF9018
:100360000C942701DF91CF911F910F91FF90EF9097
:100370000895EF92FF920F931F93CF93DF9368300E
:1003800020F5C62F8C010E944201F82EE92E28E0AC
:10039000C29FC001112480640E94D100E801085F5F
:1003A0001F4FE9910E2E000CFF0B84910E941B0140
:1003B000C017D107B1F76E2D8F2DDF91CF911F910F
:1003C0000F91FF90EF900C942701DF91CF911F9137
:1003D0000F91FF90EF9008950E94420108950E94AE
:1003E0004201892F08950C941B01CF93DF93EC01F8
:1003F0008991882319F00E941B01FACFDF91CF91D8
:100400000895CF93DF93FC018491EF012196882317
:1004100029F00E941B01FE018491F8CFDF91CF915A
:100420000895CF93DF93CDB7DEB72C970FB6F8942E
:10043000DEBF0FBECDBF611571058105910521F4A9
:1004400080E30E941B01D9C061157105810520E878
:10045000920709F4D2C0FE0131962CE0DF011D9213
:100460002A95E9F720E3298397FF09C090958095A5
:10047000709561957F4F8F4F9F4F31E001C030E005
:1004800020E3422F2F5F6130BAEC7B07BAE98B077C
:10049000BBE39B0724F07A5C8A499B43F2CF4A83F3
:1004A00020E3422F2F5F611551EE750755EF850749
:1004B00055E0950724F0715E854F9540F2CF4B8350
:1004C00020E3422F2F5F6038A6E97A07A8E98A0760
:1004D00091052CF06058764988499109F2CF4C83F8
:1004E00020E3422F2F5F6034B2E47B07BFE08B072D
:1004F00091052CF0605472448F409109F2CF4D83E6
:1005000020E3422F2F5F603A56E8750751E08507D8
:1005100091052CF0605A764881409109F2CF4E83C4
:1005200020E3422F2F5F6031A7E27A078105910512
:100530002CF06051774281099109F3CF4F8320E37A
:10054000422F2F5F683EB3E07B07810591052CF0B9
:10055000685E734081099109F3CF488720E3422FF9
:100560002F5F64367105810591052CF06456710981
:1005700081099109F4CF498720E3422F2F5F6A3028
:100580007105810591052CF06A5071098109910965
:10059000F4CF4A87DC01CB01B7FF03C080E090E0D5
:1005A000DC0160E3680F6B8720E0DF01A20FB11D63
:1005B0008C91803311F42F5FF8CF332331F0215029
:1005C000DF01A20FB11D8DE28C939AE0921B80E0B7
:1005D00030E0BF01680F711DAB01420F531FDA01FC
:1005E0004C91DB014C938F5F981798F7DF01A80FB0
:1005F000B11D1C92CF010E94F5012C960FB6F89404
:10060000DEBF0FBECDBFDF91CF9108958F929F9235
:10061000AF92BF92CF92DF92EF92FF926B017C017B
:1006200049015A0120E030E0A9010E94B106811180
:1006300011C080E30E941B018EE20E941B0180E337
:10064000FF90EF90DF90CF90BF90AF909F908F90F2
:100650000C941B0120E030E040E05FECC701B601E4
:100660000E949E0787FD47C020E030E040E05FE445
:10067000C701B6010E94B10687FF3DC020E030E00F
:10068000A901C701B6010E94B10687FF07C0F7FAAA
:10069000F094F7F8F0948DE20E941B01C701B601B7
:1006A0000E94B6060E9411028EE20E941B01C70141
:1006B000B6010E94BD060E94EC069B01AC01C70179
:1006C000B6010E9444066B017C01C501B4010E9481
:1006D000EC069B01AC01C701B6010E94A3070E9472
:1006E000B606FF90EF90DF90CF90BF90AF909F90B5
:1006F0008F900C941102FF90EF90DF90CF90BF90FD
:10070000AF909F908F9008959A015FB7F894E0EAB8
:10071000F1E0708F678B11821082138A148A158A18
:10072000168A138214821582168217821086118609
:10073000128613861486158616861786108A118AE5
:10074000128A118EAAEBB1E09C919E7F9D7F9C93B3
:100750008283348F238F47B121E030E0B90102C09A
:10076000660F771F8A95E2F7CB01962F9095942319
:1007700097B9E8E6F0E0908192609083ECE6F0E0D3
:100780009081892B80835FBF789408952FB7F89468
:100790008091BA0180FD24C081FF07C08D7F8093C6
:1007A000BA012FBF81E090E008953091BB014091E4
:1007B000BC018091B3019091B401A091B501B091B9
:1007C000B6016091B7017091B8016817790789F097
:1007D000592F5095581741F03093BB014093BC01FD
:1007E0002FBF80E090E00895E82FF0E06E177F07BC
:1007F00099F75A2F8B2F8095A813EECFE32FF42F64
:1008000081819281009741F33396DF0113976C91B8
:100810005613F6CF1092B3011092B4011092B501A5
:100820001092B6013093BB014093BC012FBF0895D5
:100830001F920F920FB60F921124AF92BF92CF92D8
:10084000DF92EF92FF920F931F932F933F934F935B
:100850005F936F937F938F939F93AF93BF93CF9348
:10086000DF93EF93FF9326B14091A20181E090E0E6
:10087000042E02C0880F991F0A94E2F730E0822309
:10088000932302C0959587954A95E2F7811178C028
:10089000209198013091990140919A0150919B01CA
:1008A00060919C0170919D0180919E0190919F01AA
:1008B000A090AB01B090AC01C090AD01D090AE0162
:1008C000E090AF01F090B0010091B1011091B20140
:1008D0000E942F062093A3013093A4014093A50109
:1008E0005093A6016093A7017093A8018093A9017A
:1008F0009093AA012E3734404105510561057105D9
:100900008105910569F060F01092B9018091BA01FA
:100910008E7F8D7F8093BA011092A1011092A00169
:100920008091A0019091A101009719F0029739F0F0
:10093000DCC081E090E09093A1018093A0017091D0
:1009400098016091990150919A0140919B013091D9
:100950009C0120919D0190919E0180919F01709337
:10096000AB016093AC015093AD014093AE01309365
:10097000AF012093B0019093B1018093B201B5C053
:100980008091A0019091A1018130910519F0029709
:1009900041F0ABC082E090E09093A1018093A00170
:1009A000A4C0E090A301F090A4010091A5011091D2
:1009B000A601D091A701C091A801B091A901F09121
:1009C000AA019701A8016D2F7C2F8B2F9F2F223812
:1009D000310541055105610571058105910541F01C
:1009E00038F08091BA0181608D7F8093BA016EC02A
:1009F0009701A8016D2F7C2F8B2F9F2FAEE60E94B1
:100A0000380661F058F08091BA0182608E7F809341
:100A1000BA011092A1011092A00158C09701A8013B
:100A20006D2F7C2F8B2F9F2FA4E1E091B9010E94A5
:100A30003806D1F0C8F081E090E0A0E0B0E00E2EE2
:100A400004C0880F991FAA1FBB1F0A94D2F74091B8
:100A5000B3015091B4016091B5017091B601842B3E
:100A6000952BA62BB72B27C09701A8016D2F7C2FA4
:100A70008B2F9F2FA9E00E94380641F138F181E0C9
:100A800090E0A0E0B0E00E2E04C0880F991FAA1FCE
:100A9000BB1F0A94D2F780959095A095B095409190
:100AA000B3015091B4016091B5017091B6018423F6
:100AB0009523A623B7238093B3019093B401A09309
:100AC000B501B093B601EF5FE093B9018091B90130
:100AD000803258F01092B9018091BA018E7F8093D4
:100AE000BA011092A1011092A001FF91EF91DF9144
:100AF000CF91BF91AF919F918F917F916F915F91B6
:100B00004F913F912F911F910F91FF90EF90DF90A8
:100B1000CF90BF90AF900F900FBE0F901F90189581
:100B20001F920F920FB60F9211242F933F934F9362
:100B30005F936F937F938F939F93AF9320919801CF
:100B40003091990140919A0150919B0160919C01D3
:100B500070919D0180919E0190919F01A1E00E9462
:100B60002306209398013093990140939A01509362
:100B70009B0160939C0170939D0180939E019093D3
:100B80009F01AF919F918F917F916F915F914F9155
:100B90003F912F910F900FBE0F901F9018950E94BC
:100BA00053008FB7F89427EC30E0309389002093FE
:100BB000880092E090936F00109280009AE09093EA
:100BC00081008FBF40E051E060E07FEF84E00E9451
:100BD00084030E94DA000E94240160E080E00E9409
:100BE000270184E891E00E94F50187E787BDC6E40C
:100BF00000E911E00E94C6030E97E1F761E080E092
:100C00000E94270181E991E00E94F501C7BD88EEAD
:100C100093E0F8013197F1F70197D9F7EBCFAA1BD1
:100C2000BB1B51E107C0AA1FBB1FA617B70710F0D7
:100C3000A61BB70B881F991F5A95A9F78095909509
:100C4000BC01CD0108950024A7FD00942A0F301D9A
:100C5000401D501D601D701D801D901D08952A1996
:100C60003B094C095D096E097F09800B910B0895C2
:100C70000024A7FD00942A173005400550056005A3
:100C800070058005900508955058BB27AA270E943B
:100C90005C060C9464070E94560738F00E945D07BA
:100CA00020F039F49F3F19F426F40C9453070EF406
:100CB000E095E7FB0C944D07E92F0E94750758F368
:100CC000BA17620773078407950720F079F4A6F531
:100CD0000C9497070EF4E0950B2EBA2FA02D0B0164
:100CE000B90190010C01CA01A0011124FF27591B71
:100CF00099F0593F50F4503E68F11A16F040A22F77
:100D0000232F342F4427585FF3CF469537952795E7
:100D1000A795F0405395C9F77EF41F16BA0B620BE6
:100D2000730B840BBAF09150A1F0FF0FBB1F661F2D
:100D3000771F881FC2F70EC0BA0F621F731F841F70
:100D400048F4879577956795B795F7959E3F08F096
:100D5000B0CF9395880F08F09927EE0F9795879558
:100D600008950E94290708F481E008950E94BD06B5
:100D70006894B1110C94980708950E947D0788F03B
:100D80009F5798F0B92F9927B751B0F0E1F0660F4F
:100D9000771F881F991F1AF0BA95C9F714C0B13090
:100DA00091F00E949707B1E008950C949707672F80
:100DB000782F8827B85F39F0B93FCCF386957795BF
:100DC0006795B395D9F73EF49095809570956195A8
:100DD0007F4F8F4F9F4F0895E89409C097FB3EF4D3
:100DE00090958095709561957F4F8F4F9F4F992378
:100DF000A9F0F92F96E9BB279395F69587957795F6
:100E00006795B795F111F8CFFAF4BB0F11F460FFB5
:100E10001BC06F5F7F4F8F4F9F4F16C0882311F00D
:100E200096E911C0772321F09EE8872F762F05C021
:100E3000662371F096E8862F70E060E02AF09A95BC
:100E4000660F771F881FDAF7880F9695879597F9B1
:100E50000895990F0008550FAA0BE0E8FEEF16164B
:100E60001706E807F907C0F012161306E407F5079E
:100E700098F0621B730B840B950B39F40A2661F012
:100E8000232B242B252B21F408950A2609F4A140B5
:100E9000A6958FEF811D811D089597F99F6780E8C2
:100EA00070E060E008959FEF80EC089500240A94BC
:100EB0001616170618060906089500240A94121635
:100EC0001306140605060895092E0394000C11F468
:100ED000882352F0BB0F40F4BF2B11F460FF04C015
:100EE0006F5F7F4F8F4F9F4F089557FD9058440F6E
:100EF000551F59F05F3F71F04795880F97FB991F79
:100F000061F09F3F79F08795089512161306140635
:100F1000551FF2CF4695F1DF08C0161617061806C2
:100F2000991FF1CF86957105610508940895E8949D
:100F3000BB2766277727CB0197F908950E942907D9
:100F400008F48FEF08950E94B6070C9464070E947E
:100F5000560738F00E945D0720F0952311F00C949D
:100F60004D070C94530711240C9498070E947507A1
:100F700070F3959FC1F3950F50E0551F629FF001EC
:100F8000729FBB27F00DB11D639FAA27F00DB11D05
:100F9000AA1F649F6627B00DA11D661F829F22278E
:100FA000B00DA11D621F739FB00DA11D621F839F15
:100FB000A00D611D221F749F3327A00D611D231FEB
:100FC000849F600D211D822F762F6A2F11249F5739
:100FD00050409AF0F1F088234AF0EE0FFF1FBB1F3C
:100FE000661F771F881F91505040A9F79E3F5105FB
:100FF00080F00C944D070C9498075F3FE4F3983E03
:10100000D4F3869577956795B795F795E7959F5FA4
:10101000C1F7FE2B880F911D9695879597F9089536
:04102000F894FFCF72
:10102400450D00460E00470F00440B00400C0043E2
:101034000A0007030015020009040016130019062C
:10104400000D07000C14001815005E1600081700A8
:101054001C18005A1900421A00521B004A1C00FFB7
:101064000000020200000300010A00041100050B45
:1010740000061000080D000912000A0F000C1300EE
:101084000D0C000E1D001014001115001216001492
:101094001700151800161900181A00191B001A1C3D
:1010A40000FF000042656573656368757267657269
:0810B400004761616761000063
:00000001FF
