:100000000C9434000C9451000C9451000C94510049
:100010000C9456040C9451000C9451000C94510013
:100020000C9451000C9451000C9451000C94CE058A
:100030000C9451000C9451000C9451000C945100FC
:100040000C9451000C9451000C9451000C945100EC
:100050000C9451000C9451000C9451000C945100DC
:100060000C9451000C94510011241FBECFEFD8E026
:10007000DEBFCDBF11E0A0E0B1E0E6E9F2E102C0F1
:1000800005900D92AC39B107D9F721E0ACE9B1E0A8
:1000900001C01D92A13CB207E1F70E940D060C942D
:1000A00049090C9400008FEF87BD84B5806484BD3E
:1000B00084B5826084BD85B5846085BD569A0895F7
:1000C000BC018CE799E70E94D70667BD08958F921F
:1000D0009F92AF92BF92CF92DF92EF92FF924B012D
:1000E0005C0169017A010E94620160E080E00E9487
:1000F000650184E891E00E9433028AE08816910449
:10010000A104B10420F48BE891E00E943302C50100
:10011000B4010E944F028DE891E00E9433028AE010
:10012000C816D104E104F10420F48BE891E00E94A8
:100130003302C701B601FF90EF90DF90CF90BF90E0
:10014000AF909F908F900C944F022B9A85E08A95E8
:10015000F1F700002B9808952C9884FF02C05A9A5A
:1001600001C05A9885FF02C05B9A01C05B9886FF68
:1001700002C05C9A01C05C9887FF02C05D9A01C012
:100180005D980C94A500CF93C82F84FF02C05A9AA3
:1001900001C05A98C5FF02C05B9A01C05B98C6FFB8
:1001A00002C05C9A01C05C98C7FF02C05D9A01C0A2
:1001B0005D980E94A500C0FF02C05A9A01C05A98DB
:1001C000C1FF02C05B9A01C05B98C2FF02C05C9A8B
:1001D00001C05C98C3FF02C05D9A01C05D98CF91D9
:1001E0000C94A500CF9352985398549855982C98F6
:1001F0002A9A2B9A85E08A95F1F700004D9902C062
:10020000C0E001C0C0E82B980E94A500C7FDF1CF57
:10021000529A539A549A559A2A98CF910895CF9307
:10022000C82F0E94F2002C988C2FCF910C94C30001
:10023000529A539A549A559A249A229A239A5A98DF
:100240005B985C985D982C982A982B982FEF89EFF3
:1002500090E0215080409040E1F700C0000080E332
:100260000E94AC008FE39CE90197F1F700C0000009
:1002700080E30E94AC008FE99FE00197F1F700C096
:10028000000080E30E94AC008FE99FE00197F1F746
:1002900000C0000080E20E94AC0088E20E940F01D2
:1002A0008CE00E940F0186E00E940F0181E00C9417
:1002B0000F01CF93C82F0E94F2002C9A8C2FCF9160
:1002C0000C94C30081E00C940F01803158F462302B
:1002D00048F4613011F490E401C090E08068892B0B
:1002E0000C940F010895CF93682F80E00E94650160
:1002F000C1E180E20E945901C150D9F7CF91089520
:100300000E94F20052985398549855982C982A9A23
:100310002B9A85E08A95F1F700004A9902C020E007
:1003200001C020E14B9902C040E001C040E24C997D
:1003300002C030E001C030E42B982B9A85E08A950A
:10034000F1F7000089B182FB882780F9822B842B8A
:10035000832B4B9902C020E001C022E0822B4C99F4
:1003600002C090E001C094E0892B4D9902C090E05A
:1003700001C098E0892B2B98529A539A549A559A17
:100380002A9880341CF0805491E0089590E00895FC
:10039000EF92FF920F931F93CF93DF93683000F596
:1003A000C62F8C010E948001F82EE92E28E0C29F02
:1003B000C001112480640E940F01E801085F1F4FF3
:1003C00089910E945901C017D107D1F76E2D8F2D49
:1003D000DF91CF911F910F91FF90EF900C946501E9
:1003E000DF91CF911F910F91FF90EF900895EF92C1
:1003F000FF920F931F93CF93DF93683020F5C62FA2
:100400008C010E948001F82EE92E28E0C29FC001D5
:10041000112480640E940F01E801085F1F4FE991D9
:100420000E2E000CFF0B84910E945901C017D107BA
:10043000B1F76E2D8F2DDF91CF911F910F91FF900E
:10044000EF900C946501DF91CF911F910F91FF9078
:10045000EF9008950E94800108950E948001892FE5
:1004600008950C945901CF93DF93EC01899188236F
:1004700019F00E945901FACFDF91CF910895CF93DF
:10048000DF93FC018491EF012196882329F00E94DB
:100490005901FE018491F8CFDF91CF910895CF9358
:1004A000DF93CDB7DEB72C970FB6F894DEBF0FBE43
:1004B000CDBF611571058105910521F480E30E948E
:1004C0005901D9C061157105810520E8920709F429
:1004D000D2C0FE0131962CE0DF011D922A95E9F78A
:1004E00020E3298397FF09C09095809570956195C9
:1004F0007F4F8F4F9F4F31E001C030E020E3422F0C
:100500002F5F6130BAEC7B07BAE98B07BBE39B072F
:1005100024F07A5C8A499B43F2CF4A8320E3422F3E
:100520002F5F611551EE750755EF850755E095076B
:1005300024F0715E854F9540F2CF4B8320E3422F2C
:100540002F5F6038A6E97A07A8E98A0791052CF0A1
:100550006058764988499109F2CF4C8320E3422FB5
:100560002F5F6034B2E47B07BFE08B0791052CF06E
:10057000605472448F409109F2CF4D8320E3422FA3
:100580002F5F603A56E8750751E0850791052CF01A
:10059000605A764881409109F2CF4E8320E3422F82
:1005A0002F5F6031A7E27A07810591052CF0605139
:1005B000774281099109F3CF4F8320E3422F2F5FC8
:1005C000683EB3E07B07810591052CF0685E7340BF
:1005D00081099109F3CF488720E3422F2F5F6436CA
:1005E0007105810591052CF0645671098109910905
:1005F000F4CF498720E3422F2F5F6A3071058105D0
:1006000091052CF06A50710981099109F4CF4A874C
:10061000DC01CB01B7FF03C080E090E0DC0160E3C8
:10062000680F6B8720E0DF01A20FB11D8C91803332
:1006300011F42F5FF8CF332331F02150DF01A20FE7
:10064000B11D8DE28C939AE0921B80E030E0BF01F7
:10065000680F711DAB01420F531FDA014C91DB0192
:100660004C938F5F981798F7DF01A80FB11D1C926C
:10067000CF010E9433022C960FB6F894DEBF0FBE56
:10068000CDBFDF91CF9108958F929F92AF92BF928D
:10069000CF92DF92EF92FF926B017C0149015A01E8
:1006A00020E030E0A9010E94EA07811111C080E337
:1006B0000E9459018EE20E94590180E3FF90EF9061
:1006C000DF90CF90BF90AF909F908F900C94590186
:1006D00020E030E040E05FECC701B6010E94D7089F
:1006E00087FD47C020E030E040E05FE4C701B6018D
:1006F0000E94EA0787FF3DC020E030E0A901C70162
:10070000B6010E94EA0787FF07C0F7FAF094F7F8EE
:10071000F0948DE20E945901C701B6010E94EF07D3
:100720000E944F028EE20E945901C701B6010E9449
:10073000F6070E9425089B01AC01C701B6010E9483
:100740007D076B017C01C501B4010E9425089B0156
:10075000AC01C701B6010E94DC080E94EF07FF90C0
:10076000EF90DF90CF90BF90AF909F908F900C94C0
:100770004F02FF90EF90DF90CF90BF90AF909F908F
:100780008F9008959A015FB7F894E4EAF1E0708FD2
:10079000678B11821082138A148A158A168A138233
:1007A000148215821682178210861186128613868D
:1007B0001486158616861786108A118A128A118E5B
:1007C000AEEBB1E09C919E7F9D7F9C938283348FA2
:1007D000238F47B121E030E0B90102C0660F771FD7
:1007E0008A95E2F7CB01962F9095942397B9E8E686
:1007F000F0E0908192609083ECE6F0E09081892BAC
:1008000080835FBF789408952FB7F8948091BE01DC
:1008100080FD24C081FF07C08D7F8093BE012FBF64
:1008200081E090E008953091BF014091C001809136
:10083000B7019091B801A091B901B091BA0160914E
:10084000BB017091BC016817790789F0592F509549
:10085000581741F03093BF014093C0012FBF80E093
:1008600090E00895E82FF0E06E177F0799F75A2F70
:100870008B2F8095A813EECFE32FF42F81819281E7
:10088000009741F33396DF0113976C915613F6CF1F
:100890001092B7011092B8011092B9011092BA01EA
:1008A0003093BF014093C0012FBF08951F920F9254
:1008B0000FB60F921124AF92BF92CF92DF92EF92B8
:1008C000FF920F931F932F933F934F935F936F93D9
:1008D0007F938F939F93AF93BF93CF93DF93EF93C8
:1008E000FF9326B14091A60181E090E0042E02C062
:1008F000880F991F0A94E2F730E08223932302C005
:10090000959587954A95E2F7811178C020919C01D1
:1009100030919D0140919E0150919F016091A001F5
:100920007091A1018091A2019091A301A090AF01CB
:10093000B090B001C090B101D090B201E090B3018D
:10094000F090B4010091B5011091B6010E945F07CB
:100950002093A7013093A8014093A9015093AA01C5
:100960006093AB017093AC018093AD019093AE01A5
:100970002E3734404105510561057105810591050A
:1009800069F060F01092BD018091BE018E7F8D7F75
:100990008093BE011092A5011092A4018091A40140
:1009A0009091A501009719F0029739F0DCC081E021
:1009B00090E09093A5018093A40170919C016091B7
:1009C0009D0150919E0140919F013091A001209185
:1009D000A1019091A2018091A3017093AF01609356
:1009E000B0015093B1014093B2013093B301209311
:1009F000B4019093B5018093B601B5C08091A40174
:100A00009091A5018130910519F0029741F0ABC09A
:100A100082E090E09093A5018093A401A4C0E090AF
:100A2000A701F090A8010091A9011091AA01D0910D
:100A3000AB01C091AC01B091AD01F091AE01970155
:100A4000A8016D2F7C2F8B2F9F2F22383105410558
:100A50005105610571058105910541F038F08091DE
:100A6000BE0181608D7F8093BE016EC09701A80199
:100A70006D2F7C2F8B2F9F2FAEE60E94710761F0A8
:100A800058F08091BE0182608E7F8093BE011092EB
:100A9000A5011092A40158C09701A8016D2F7C2FC9
:100AA0008B2F9F2FA4E1E091BD010E947107D1F02F
:100AB000C8F081E090E0A0E0B0E00E2E04C0880F06
:100AC000991FAA1FBB1F0A94D2F74091B7015091FA
:100AD000B8016091B9017091BA01842B952BA62BB6
:100AE000B72B27C09701A8016D2F7C2F8B2F9F2F2D
:100AF000A9E00E94710741F138F181E090E0A0E0A7
:100B0000B0E00E2E04C0880F991FAA1FBB1F0A94C5
:100B1000D2F780959095A095B0954091B7015091EE
:100B2000B8016091B9017091BA0184239523A6237D
:100B3000B7238093B7019093B801A093B901B09304
:100B4000BA01EF5FE093BD018091BD01803258F0A2
:100B50001092BD018091BE018E7F8093BE011092E4
:100B6000A5011092A401FF91EF91DF91CF91BF9168
:100B7000AF919F918F917F916F915F914F913F9135
:100B80002F911F910F91FF90EF90DF90CF90BF902A
:100B9000AF900F900FBE0F901F9018951F920F925D
:100BA0000FB60F9211242F933F934F935F936F9340
:100BB0007F938F939F93AF9320919C0130919D01E0
:100BC00040919E0150919F016091A0017091A101FF
:100BD0008091A2019091A301A1E00E94530720936C
:100BE0009C0130939D0140939E0150939F0160931F
:100BF000A0017093A1018093A2019093A301AF91F2
:100C00009F918F917F916F915F914F913F912F9124
:100C10000F900FBE0F901F901895CF93DF93CDB715
:100C2000DEB72E970FB6F894DEBF0FBECDBF0E9481
:100C300053008FB7F89427EC30E03093890020936D
:100C4000880092E090936F00109280009AE0909359
:100C500081008FBF40E051E060E07FEF84E00E94C0
:100C6000C2030E9418010E94620160E080E00E94BD
:100C700065018FE891E00E94330287E787BD20E09D
:100C800030E0A90160E070E0CB010E946700412CD8
:100C9000512C3201212C312C0E9404048230910508
:100CA00031F0039739F481E0281A310803C08FEF3F
:100CB000281A380A20919C0130919D0140919E0193
:100CC00050919F016091A0017091A1018091A201BA
:100CD0009091A301F0ECAF2EA7E2BA2EB9E0CB2E93
:100CE000D12CE12CF12C00E010E00E94ED06410136
:100CF000A12CB12CC12CD12C760129829A82AB82F5
:100D0000BC82CD82DE82EF82F8865101C12CD12CCB
:100D1000E12CF12C0E944A0729873A874B875C8790
:100D20004B018E879D876CE3A62EB12CB4010E94E7
:100D3000EB06B22FA32FF42FE52F63015201E12C14
:100D4000F12C87014982BA82CB82DC82ED82FE825D
:100D50000F831887E12CF12C00E010E00E94680757
:100D600009F49ACF9D01CF01432E522E692E782E81
:100D70008CE3A82EB12CC12CD12C29853A854B852A
:100D80005C85B4018E859D850E94ED06E8E1AE2E5E
:100D90000E94EB06B22FA32FF42FE52FA30192019F
:100DA0006B2F7A2F8F2F9E2F0E94670075CFAA1B63
:100DB000BB1B51E107C0AA1FBB1FA617B70710F046
:100DC000A61BB70B881F991F5A95A9F78095909578
:100DD000BC01CD010895689401C0E8948F929F9260
:100DE000CF93DF930E94F906DF91CF919F908F9070
:100DF000089588249924F401E401B0E49F93AA277C
:100E00009A158B049C04ED05FE05CF05D007A107BC
:100E100098F4AD2FDC2FCF2FFE2FE92D982C892EA3
:100E2000982F872F762F652F542F432F322F22276D
:100E3000B85031F7BF9127C01B2EBF91BB27220F9F
:100E4000331F441F551F661F771F881F991F881C5B
:100E5000991CEE1FFF1FCC1FDD1FAA1FBB1F8A148A
:100E60009B04EC05FD05CE05DF05A007B10748F0A2
:100E70008A189B08EC09FD09CE09DF09A00BB10B0C
:100E800021601A94E1F62EF49401AF01BE01CD0168
:100E9000000C08952A0D3B1D4C1D5D1D6E1D7F1D10
:100EA000801F911F08950024A7FD00942A0F301D74
:100EB000401D501D601D701D801D901D08952A1934
:100EC0003B094C095D096E097F09800B910B089560
:100ED0002A153B054C055D056E057F0580079107CA
:100EE00008950024A7FD00942A17300540055005F9
:100EF000600570058005900508955058BB27AA2706
:100F00000E9495070C949D080E948F0838F00E945B
:100F1000960820F039F49F3F19F426F40C948C08BD
:100F20000EF4E095E7FB0C948608E92F0E94AE08CA
:100F300058F3BA17620773078407950720F079F40E
:100F4000A6F50C94D0080EF4E0950B2EBA2FA02D28
:100F50000B01B90190010C01CA01A0011124FF2766
:100F6000591B99F0593F50F4503E68F11A16F04061
:100F7000A22F232F342F4427585FF3CF4695379560
:100F80002795A795F0405395C9F77EF41F16BA0B25
:100F9000620B730B840BBAF09150A1F0FF0FBB1FD3
:100FA000661F771F881FC2F70EC0BA0F621F731F1C
:100FB000841F48F4879577956795B795F7959E3F79
:100FC00008F0B0CF9395880F08F09927EE0F97950A
:100FD000879508950E94620808F481E008950E94B0
:100FE000F6076894B1110C94D10808950E94B608D0
:100FF00088F09F5798F0B92F9927B751B0F0E1F0DA
:10100000660F771F881F991F1AF0BA95C9F714C089
:10101000B13091F00E94D008B1E008950C94D0084E
:10102000672F782F8827B85F39F0B93FCCF38695C2
:1010300077956795B395D9F73EF49095809570951F
:1010400061957F4F8F4F9F4F0895E89409C097FB9C
:101050003EF490958095709561957F4F8F4F9F4F8F
:101060009923A9F0F92F96E9BB279395F6958795D3
:1010700077956795B795F111F8CFFAF4BB0F11F496
:1010800060FF1BC06F5F7F4F8F4F9F4F16C088233D
:1010900011F096E911C0772321F09EE8872F762F73
:1010A00005C0662371F096E8862F70E060E02AF0B4
:1010B0009A95660F771F881FDAF7880F96958795A0
:1010C00097F90895990F0008550FAA0BE0E8FEEF75
:1010D00016161706E807F907C0F012161306E407FC
:1010E000F50798F0621B730B840B950B39F40A26F5
:1010F00061F0232B242B252B21F408950A2609F4D3
:10110000A140A6958FEF811D811D089597F99F67D6
:1011100080E870E060E008959FEF80EC089500247F
:101120000A941616170618060906089500240A944C
:1011300012161306140605060895092E0394000CD2
:1011400011F4882352F0BB0F40F4BF2B11F460FF61
:1011500004C06F5F7F4F8F4F9F4F089557FD90588A
:10116000440F551F59F05F3F71F04795880F97FB6B
:10117000991F61F09F3F79F0879508951216130625
:101180001406551FF2CF4695F1DF08C01616170654
:101190001806991FF1CF8695710561050894089589
:1011A000E894BB2766277727CB0197F908950E941B
:1011B000620808F48FEF08950E94EF080C949D08D0
:1011C0000E948F0838F00E94960820F0952311F0B5
:1011D0000C9486080C948C0811240C94D1080E945D
:1011E000AE0870F3959FC1F3950F50E0551F629FB5
:1011F000F001729FBB27F00DB11D639FAA27F00D70
:10120000B11DAA1F649F6627B00DA11D661F829F96
:101210002227B00DA11D621F739FB00DA11D621F7B
:10122000839FA00D611D221F749F3327A00D611D98
:10123000231F849F600D211D822F762F6A2F11247A
:101240009F5750409AF0F1F088234AF0EE0FFF1FAD
:10125000BB1F661F771F881F91505040A9F79E3F04
:10126000510580F00C9486080C94D1085F3FE4F39C
:10127000983ED4F3869577956795B795F795E7955A
:101280009F5FC1F7FE2B880F911D9695879597F963
:061290000895F894FFCF61
:10129600450D00460E00470F00440B00400C00436E
:1012A6000A000703001502000904001613001906B8
:1012B600000D07000C14001815005E160008170034
:1012C6001C18005A1900421A00521B004A1C00FF43
:1012D6000000020200000300010A00041100050BD1
:1012E60000061000080D000912000A0F000C13007A
:1012F6000D0C000E1D00101400111500121600141E
:101306001700151800161900181A00191B001A1CC8
:1013160000FF000054696D653A200030003A004233
:0C13260065657365636875726765720029
:00000001FF
